:100E98007F01120F037F06120CB77F017E00120E2E
:100EA800C87F02120F037F0E120CB77F017E00125B
:100EB8000EC87F03120F037F0E120CB77F017E004E
:100EC800D3EF9400EE940040147D9F7C01ED1D70DB
:0D0ED800011CED4C70F7EF1F70E61E80E36B
:010EE50022EA
:050F22007F04120F0323
:100F2700EFFD7C006401700375A0FFED64024C7057
:100F37000375A0FFED64034C700375A0FFED640417
:070F47004C700375A0FF22AE
:100E4500EFB40A00504C900E52F8282873020E7029
:100E5500020E74020E78020E7C020E80020E8402CF
:100E65000E88020E8C020E90020E947590C02275AB
:100E750090F9227590A4227590B0227590992275EB
:100E8500909222759082227590F822759080227535
:030E950090982210
:050CB200120F037F0793
:100CB700EFB41A004003020D7C900CC7F828287384
:100CC700020D15020D19020D1D020D21020D25023F
:100CD7000D29020D2D020D31020D35020D39020DC0
:100CE7003D020D41020D45020D49020D4D020D5108
:100CF700020D55020D59020D5D020D61020D6502CF
:100D07000D69020D6D020D71020D75020D79759059
:100D1700A022759083227590A7227590A1227590C5
:100D2700862275908E227590902275908B227590F1
:100D3700FB227590F12275908F227590C7227590CE
:100D4700AA227590AB227590A32275908C2275907C
:100D57009A227590AF22759092227590872275908E
:100D6700E3227590C122759081227590B922759002
:060D77008D227590B322ED
:100EE600120CB77F027E00120EC87F02120F037F1C
:0D0EF6000E120CB77F027E00120EC87F03A3
:100F0300EF24FE600E14600F1460102403700F753D
:0F0F1300A0FE2275A0FD2275A0FB2275A0F7227B
:100BB700751200751364851214851315E4FAFBC3C7
:100BC700EB9515EA951450247F01120CB27F037E32
:100BD70000120EC87F02120F037F08120CB77F03A3
:100BE7007E00120EC80BBB00010A80D38512148544
:100BF7001315E4FAFBC3EB9515EA9514501D7F0115
:100C0700120F037F18120EE67F14120CB77F027EB5
:100C170000120EC80BBB00010A80DA851214851377
:100C270015E4FAFBC3EB9515EA9514502A7F0112D8
:100C37000F037F03120CB71F7E00120EC87F02122C
:100C47000F037F08120EF7120CB71F7E00120EC893
:100C57000BBB00010A80CD851214851315E4FAFB3E
:100C6700C3EB9515EA95145013120E987F04120FD3
:100C7700031F120EC10BBB00010A80E48512148505
:100C87001315E4FAFBC3EB9515EA9514501C7F0185
:100C9700120F037F09120EE67F01120CB70F7E00B9
:0A0CA700120EC80BBB00010A80DB2F
:010CB1002220
:04080000AB07AA0692
:100804007516007517327F04120CB27F907E0112A8
:100814000EC8E4FAFBC3EB9517EA951650247F0340
:10082400120CB27F037E00120EC87F04120F037FE6
:1008340008120CB77F037E00120EC80BBB00010A1E
:1008440080D3E4FAFBC3EB9517EA951650277F0291
:10085400120F037F07120EF77F08120CB77F027E78
:1008640000120EC8120F227F027E00120EC80BBBAC
:1008740000010A80D0E4FAFBC3EB9517EA95165001
:10088400307F01120F037F07120EC17F02120F0384
:100894007F08120EC17F03120F03120F27120EC41A
:1008A4007F04120F037F18120EC10BBB00010A80D4
:1008B400C7E4FAFBC3EB9517EA951650277F01129C
:1008C4000F037F08120EC17F02120F03120F271F9E
:1008D400120EFC7F18120EC17F04120EBC0BBB005B
:1008E400010A80D0E4FAFBC3EB9517EA9516502869
:1008F4007F01120F03120F277E00120EC87F02120F
:100904000F037F18120EB07F04120F037F14120E10
:10091400C10BBB00010A80CFE4FAFBC3EB9517EAD5
:10092400951650267F01120F037F18120EC17F0205
:10093400120EBC7F03120F037F14120EC1120F227A
:10094400120EC40BBB00010A80D1E4FAFBC3EB9581
:1009540017EA9516502A7F01120EBC7F02120F036C
:100964007F14120EC17F03120F03120F27120EC43D
:100974007F04120F031F120EC10BBB00010A80CDAE
:10098400E4FAFBC3EB9517EA9516502A7F01120F80
:10099400037F14120EC17F02120F03120F271F12BE
:1009A4000EFC120EC17F04120F037F08120EC10B3E
:1009B400BB00010A80CDE4FAFBC3EB9517EA951658
:1009C40050307F01120F03120F277E00120EC87FD2
:1009D40002120F030F120EC17F03120F037F0812BE
:1009E4000EC17F04120F031F120EC10BBB00010ABC
:1009F40080C7E4FAFBC3EB9517EA951650297F01EB
:100A0400120F037F03120EC17F02120F037F08121D
:100A14000EC17F03120F03120EC1120F22120EC455
:100A24000BBB00010A80CEE4FAFBC3EB9517EA95F1
:100A340016502F7F01120F037F08120EC17F02127E
:100A44000F030F120EC17F03120F03120F27120E92
:100A5400C47F04120F037F06120EC10BBB00010AF0
:100A640080C8E4FAFBC3EB9517EA951650277F017B
:100A7400120F037F03120EC17F02120F03120F27FE
:100A84001F120EFC7F06120EC17F04120EBC0BBB9C
:100A940000010A80D0E4FAFBC3EB9517EA951650DF
:100AA400237F01120F03120F277E00120EC87F024C
:100AB400120F037F06120EB07F04120EBC0BBB0094
:100AC400010A80D4E4FAFBC3EB9517EA9516501398
:100AD400120E987F04120F031F120EC10BBB0001EC
:100AE4000A80E4E4FAFBC3EB9517EA9516501F7FDE
:100AF40001120EBC7F02120EBC7F03120F03120EF2
:100B0400C1120F22120EC40BBB00010A80D8E4FAF2
:100B1400FBC3EB9517EA9516502A7F01120EBC7F92
:100B240002120F030F120EC17F03120F03120F27BD
:100B3400120EC47F04120F037F09120EC10BBB00F7
:100B4400010A80CDE4FAFBC3EB9517EA951650270A
:100B54007F01120F037F03120EC17F02120F0312D3
:100B64000F271F120EFC7F09120EC17F04120EBC48
:100B74000BBB00010A80D0E4FAFBC3EB9517EA959E
:100B840016502F7F01120F030F120F271F7E001222
:100B94000EC87F02120F037F09120EB07F04120FDA
:100BA400037F01120CB77E00120EC80BBB00010AB2
:020BB40080C8F7
:010BB600221C
:100D7D00E4F50AF50BF510751101F50EF50FE4F517
:100D8D0008F509E4FBFAC3E50B940AE50A648094BF
:100D9D0080506EE4F50CF50DC3E50D9511E510646D
:100DAD0080F8E50C648098503E7F01120F03AF0F61
:100DBD00120E45120EC47F02120F03AF09120E451B
:100DCD00120EC47F03120F03AF0B120E45120EC489
:100DDD007F04120F03AF03120E45120EC4050DE56D
:100DED000D70B5050C80B1EB64094A700C74FFFAF7
:100DFD00FB050BE50B7002050A0BBB00010A020D8A
:100E0D0093E4F50AF50B0509E50970020508C3948D
:100E1D000AE508648094805003020D90E4F508F50E
:100E2D0009050FE50F7002050EC3940AE50E6480E7
:070E3D0094805003020D8BAD
:010E4400228B
:050F5A00120D7D80FB7B
:03000000020F4E9E
:0C0F4E00787FE4F6D8FD758117020F5A79
:00000001FF
